:020000040800F2
:1000000000080020A90A0008A70A0008A50A00089D
:10001000A50A0008A50A0008A50A000800000000BB
:10002000000000000000000000000000A70A000817
:10003000A70A000800000000A70A0008A70A000895
:10004000A50A0008A50A0008A50A0008A50A0008D4
:10005000A50A0008A50A0008A50A0008A50A0008C4
:10006000A50A0008A50A0008A50A0008A50A0008B4
:10007000A50A0008A50A0008A50A0008A50A0008A4
:10008000A50A0008A50A0008A50A0008A50A000894
:10009000A50A0008A50A0008A50A0008A50A000884
:1000A000A50A0008A50A0008A50A0008A50A000874
:1000B000A50A0008A50A0008A50A0008A50A000864
:1000C000A50A0008A50A0008A50A0008A50A000854
:1000D000A50A0008A50A0008A50A0008A50A000844
:1000E000A50A0008A50A0008A50A0008A50A000834
:1000F000A50A0008A50A0008A50A0008A50A000824
:10010000A50A0008A50A0008A50A0008A50A000813
:10011000A50A0008A50A0008A50A0008A50A000803
:10012000A50A0008A50A0008A50A0008A50A0008F3
:10013000A50A0008A50A0008A50A0008A50A0008E3
:10014000A50A0008A50A0008A50A0008A50A0008D3
:10015000A50A0008A50A0008A50A0008A50A0008C3
:10016000A50A0008A50A0008A50A0008A50A0008B3
:10017000A50A0008A50A0008A50A0008A50A0008A3
:10018000A50A0008A50A0008A50A0008A50A000893
:10019000A50A0008A50A0008A50A0008A50A000883
:1001A000A50A0008A50A0008A50A00082DE9F843D9
:1001B0001446DFF858809DF82090640307460D46EA
:1001C0004046402104F4C0441E46C5F30C0500F02F
:1001D0005FF944EAC7300C4C40EA050189B2204679
:1001E00000F0B5FA204600F0B7FA46EA09212046A9
:1001F00000F0ADFA204600F0AFFA40464021BDE8DD
:10020000F84300F043B900BF003001400004024051
:100210002DE9F04F40F611008DB000F0CEF94FF40B
:10022000C06000F0CAF992480422072100F087F963
:1002300004238F480022022100F046F904228C4852
:10024000072100F07CF98B484FF4E13100F078FB96
:100250008848082100F08AFB8648002100F08FFBC7
:100260008448082100F097FB8248002100F08DFBB4
:100270000021804800F095FB7E4800F098FB40F696
:100280008C0000F09AF94FF4C06000F096F940F24B
:10029000016000F092F9784840230022012100F02B
:1002A00013F9802372480022022100F00DF97048F2
:1002B0008022052100F043F940236D4800220221ED
:1002C00000F002F96A484022052100F038F92023A5
:1002D00067480022022100F0F7F865482022052136
:1002E00000F02DF900234FF40062CDE90023102126
:1002F0001A46624800F006FB604800F009FA4FF029
:100300003332039243F233320023ADF81020C0227F
:100310001846009210210122FFF748FF0023172200
:100320001846009220210122FFF740FF04220023FB
:100330000092222101221846FFF738FF46A5D5E991
:1003400000450FF21C19D9E900894A4805260A27F9
:1003500003AB13F806B0BBF1000F5ED1302100F003
:1003600030FB44485B4603F1FF3B4FFA8BFB0DF13A
:10037000140A1BF0800F67D00D2100F022FB013E14
:100380003C480A2100F01DFB731C3A48E0D19DF85F
:100390001130009301229DF8103040F2AB11002083
:1003A000FFF704FF9DF80F30009301229DF80E30F7
:1003B00040F2A9110020FFF7F9FE9DF80D300093DF
:1003C00001229DF80C3040F2A7110020FFF7EEFE4D
:1003D00000230122184600920521FFF7E7FE284B73
:1003E00000BF013BFCD142464B462046294601F066
:1003F0009DF81DA3D3E9002304460D4601F078FBC8
:10040000204B002201F04AFA01F05AFC8DF810103E
:10041000090A03908DF8111097E700231A4630322D
:100420009BFBF7F107FB11BB0DEB020E0FFA8BFBE9
:10043000154A013312F80BC00EF81CCC5BB20FFA50
:1004400081FB0029EAD18EE71AF80B1000F0B9FA07
:100450000BF1FF3B07488CE70000000084D7A74161
:10046000000000000088C3400000000065CDCD41C1
:1004700000000240004400400004024000300140FF
:1004800080C3C9010000F0423C1D00088161704733
:10049000090481617047006908407047436901EAB7
:1004A000030221EA030141EA0241816170470069C8
:1004B00080B270474161704741F48033C361C161CC
:1004C000C361C369C36970472DE9F0410568C46819
:1004D00000264FF0030E43FA06F7FF070DD577000D
:1004E0000EFA07FC01FA07F825EA0C0524EA0C04C9
:1004F00002FA07F748EA05053C430136102EEAD117
:100500000560C460BDE8F081012941680CBF194352
:100510009943F0B5416081680024032643FA04F54D
:10052000ED0707D5650006FA05F721EA070102FA8B
:1005300005F529430134102CF0D18160F0BDF0B5F0
:10054000066A456A00234FF00F0C42FA03F4E707EE
:1005500007D59C000CFA04F726EA070601FA04F412
:1005600026430133082BF0D100234FF00F0C03F189
:10057000080442FA04F4E40707D59C000CFA04F7D7
:1005800025EA070501FA04F425430133082BEED1CF
:1005900006624562F0BD0368194301607047036855
:1005A00023EA010101607047036819430160704745
:1005B000036823EA010101607047430903F18043A6
:1005C00003F50E3300F01F001968012282400A4330
:1005D0001A607047430903F1804303F50E3300F0BE
:1005E0001F001A680121814022EA01021A60704747
:1005F000430903F1804303F50E3300F01F0019682F
:100600000122824011431960196821EA02021A602E
:100610007047FFF7D2BFFFF7DDBF0000044AD2F8F2
:10062000083823F4C00343EA4050C2F80808704772
:1006300000300240032802D0052808D07047084A3D
:10064000D2F8003843F48023C2F800387047044AD7
:10065000D2F8703843F00403C2F87038704700BF16
:1006600000300240032802D0052808D07047084A0D
:10067000D2F8003823F48023C2F800387047044AC7
:10068000D2F8703823F00403C2F87038704700BF06
:100690000030024007284FF0010307D90B2894BF10
:1006A0000738063803FA00F080B2704718467047E2
:1006B000154B98421FD00CD8A3F57843984217D019
:1006C00003F5744398420CD0A3F5784398420CD0BC
:1006D00070470E4B984211D003F58063984210D0BA
:1006E000704740F28C40FFF783BF40F20E40FAE7BC
:1006F00040F20F40F7E740F28D40F4E740F29440BB
:10070000F1E740F29540EEE700340140005001402F
:10071000036843F0400303607047036823F040031D
:100720000360704703469968C80703F10802FAD5C9
:10073000D86880B211688907FCD511680906FCD415
:100740001A6822F040021A607047C16070478368DF
:100750009B07FCD5C16070478368DB07FCD5C06888
:1007600080B27047C1608368DB07FCD5C06880B287
:100770007047036843F4004303607047036823F441
:10078000004303607047036843F400430360036859
:1007900023F4804303607047036843F4004303601D
:1007A000036843F4804303607047036843F40053D5
:1007B00003607047036823F40053036070470368C5
:1007C00023F4805303607047036843F4805303604D
:1007D0007047036823F4806303607047036843F441
:1007E000806303607047036823F4007303607047FD
:1007F000036843F400730360436823F00403436019
:100800007047036843F4807303607047036823F400
:10081000807303607047036843F080030360704790
:10082000036823F0800303607047072907D8036833
:1008300023F038031B041B0C43EAC101016070471D
:10084000036843F0040303607047036823F0040364
:1008500003607047036843F0020303607047036856
:1008600023F0020303607047036843F00103036051
:100870007047036823F0010303607047436843F047
:10088000800343607047436823F0800343607047F0
:10089000436843F0400343607047436823F04003DC
:1008A00043607047436843F02003436070474368E8
:1008B00023F0200343607047436843F00403436020
:1008C0007047436823F0040343607047436843F074
:1008D000020343607047436823F00203436070479C
:1008E000436843F0010343607047436823F001030A
:1008F0004360704703299FBF036823F00303194334
:100900000160704730B50468049D04F441542C43E1
:10091000039D2C4323431A434368114341F00401D0
:1009200043F0040343600160002030BD036823F4FA
:10093000006303607047036843F40063036070471B
:10094000074A084B10B520F4806494421B6804BF2A
:10095000054B1B6803EB5103B3FBF1F1816010BD44
:10096000001001400400002008000020C36808298E
:100970000CBF23F4805343F48053C3607047036972
:1009800023F44053194301617047C36823F4C063E3
:100990001943C1607047C36823F00C031943C16059
:1009A0007047436923F44073194341617047C3683A
:1009B00043F40053C3607047C36823F40053C3601B
:1009C000704713B50446019100F05EF80199204686
:1009D00002B0BDE8104000F04FB810B5044600F07A
:1009E00057F82046BDE8104000F04AB8436943F08C
:1009F000400343617047436923F0400343617047FC
:100A0000436943F0800343617047436923F08003E7
:100A100043617047C36843F02003C3607047C368F5
:100A200023F02003C3607047C36843F08003C360B2
:100A30007047C36823F08003C3607047C36843F006
:100A40004003C3607047C36823F04003C36070472E
:100A5000C36843F01003C3607047C36823F01003FA
:100A6000C3607047436943F00103436170474369C2
:100A700023F0010343617047C1F3080141607047EF
:100A80004068C0F30800704703681B06FCD5704738
:100A900003689B06FCD5704703680B4214BF012016
:100AA00000207047FEE7704738B51D4A1D4B1E49B0
:100AB0008B4220D31D4A0021934221D34FF0E023E3
:100AC0001B4CD3F8142D1B4D42F40072C3F8142DA7
:100AD000D3F8882D42F47002C3F8882DAC4212D3AB
:100AE000154C164DAC4212D3FFF792FB144C154D2A
:100AF000AC4210D338BD52F8040B43F8040BD7E7CF
:100B000043F8041BD8E754F8043B9847E6E754F849
:100B1000043B9847E6E754F8043B9847E8E700BFF2
:100B2000781F0008000000200C00002014000020A6
:100B3000781F0008781F0008781F0008781F000839
:100B4000781F0008781F000806280CD8DFE800F09E
:100B500004242A0C12181E00154AD2F80C3843F44B
:100B60008013C2F80C387047114AD2F80C3843F49D
:100B70000023F6E70E4AD2F80C3843F48023F0E75E
:100B80000B4AD2F80C3843F40033EAE7084AD2F8AB
:100B90000C3843F48033E4E7054AD2F80C3843F4C8
:100BA0008003DEE7024AD2F80C3843F40013D8E79A
:100BB0000030024006280CD8DFE800F004242A0C9C
:100BC00012181E00154AD2F80C3843F48053C2F8AC
:100BD0000C387047114AD2F80C3843F40063F6E73A
:100BE0000E4AD2F80C3843F48063F0E70B4AD2F88F
:100BF0000C3843F40073EAE7084AD2F80C3843F49F
:100C00008073E4E7054AD2F80C3843F48043DEE70A
:100C1000024AD2F80C3843F40053D8E700300240BF
:100C200006280CD8DFE800F004242A0C12181E0055
:100C3000154AD2F80C3823F48053C2F80C387047A8
:100C4000114AD2F80C3823F40063F6E70E4AD2F8C2
:100C50000C3823F48063F0E70B4AD2F80C3823F405
:100C60000073EAE7084AD2F80C3823F48073E4E70B
:100C7000054AD2F80C3823F48043DEE7024AD2F862
:100C80000C3823F40053D8E70030024006282FD850
:100C9000DFE800F00422280A10161C00154BD3F8D8
:100CA0000C08C0F300107047124BD3F80C08C0F3C7
:100CB000C00070470F4BD3F80C08C0F3800070479A
:100CC0000C4BD3F80C08C0F340007047094BD3F825
:100CD0000C0800F001007047064BD3F80C08C0F375
:100CE00080107047034BD3F80C08C0F340107047D6
:100CF0000020704700300240034AD2F80C3843F419
:100D00000003C2F80C38704700300240024BD3F8A1
:100D10000C08C0F3C01070470030024006282BD8E2
:100D2000DFE800F0041E240A10161A00134BD3F853
:100D30000008C0F340607047104BD3F80008C0F3C0
:100D4000404070470D4BD3F80008C0F34000704797
:100D50000A4BD3F87008F8E7084BD3F87408F4E7A7
:100D6000064BD3F80008C0F340707047034BD3F82C
:100D70000008C0F3C0607047002070470030024098
:100D800008B502461046FFF7C9FF0028FAD008BD93
:100D9000032807D10D4AD2F80838C3F38103012B89
:100DA000F9D17047042806D1084AD2F8083813F060
:100DB0000C0FFAD170470028FCD1044AD2F8083849
:100DC000C3F38103022BF9D1704700BF003002400A
:100DD00006280CD8DFE800F004282E0C121820009A
:100DE000174AD2F8003843F08073C2F800387047D1
:100DF000134AD2F8003843F48033F6E7104AD2F8A9
:100E0000003843F00103F0E70D4AD2F8703843F0A0
:100E10000103C2F870387047094AD2F8743843F0B9
:100E20000103C2F874387047054AD2F8003843F01D
:100E30008053DAE7024AD2F8003843F08063D4E7FF
:100E40000030024006280CD8DFE800F004282E0C01
:100E500012182000174AD2F8003823F08073C2F825
:100E600000387047134AD2F8003823F48033F6E78D
:100E7000104AD2F8003823F00103F0E70D4AD2F807
:100E8000703823F00103C2F870387047094AD2F86D
:100E9000743823F00103C2F874387047054AD2F859
:100EA000003823F08053DAE7024AD2F8003823F002
:100EB0008063D4E700300240034AD2F8003843F49C
:100EC0000023C2F80038704700300240034AD2F8CD
:100ED000003823F40023C2F8003870470030024085
:100EE00047F6C0730907044A03EA801001F0E041A5
:100EF0000143C2F8841870470030024012061B07F5
:100F000003F0E04302F0706209041A4301F4403137
:100F100047F6C07303EA80130A431A43014BC3F830
:100F20008828704700300240084AD2F88C3823F0F5
:100F30007F4323F47C03090423F4604341EA002047
:100F400023F0FF031843C2F88C08704700300240BA
:100F5000044AD2F8083823F003031843C2F80808FB
:100F6000704700BF00300240044AD2F8043823F42E
:100F7000800343EA8050C2F8040870470030024002
:100F8000044AD2F8083823F4604343EA4030C2F8F8
:100F90000808704700300240044AD2F8083823F4A9
:100FA000E05343EA8020C2F808087047003002404E
:100FB000044AD2F8083823F0F00343EA0010C2F8DC
:100FC0000808704700300240044AD2F8083823F479
:100FD000F81343EA0040C2F80808704700300240A6
:100FE00010B547F6C07404EA811100F03F001B06FB
:100FF00003F0706341EA00041C43029B5208022B79
:1010000002F1FF324FEA024238BF022302F44032BB
:101010001B0703F0E04314431C43024BC3F804488E
:1010200010BD00BF0030024010B5029C022C38BF3A
:10103000022424071B0603F0706304F0E044520806
:101040001C4300F03F0047F6C073013A03EA8111E8
:10105000044312040C4302F44032034B144344F49F
:101060008004C3F8044810BD00300240024BD3F89E
:101070000808C0F3810070470030024037B50446CD
:101080000420FFF7A5FEFFF77BFE0020FFF760FFBF
:10109000E379012B04D10320FFF79AFEFFF770FEDE
:1010A00040F61C00FFF789FAE07B00F005F9207B91
:1010B000FFF77EFF607BFFF76FFFA07BFFF760FF0E
:1010C0000020FFF7BFFEE379A579227961882078B7
:1010D0000095012B63792FD1FFF7A6FF0020FFF7C2
:1010E00077FEFFF74DFEA3685A0528D500F0A8F853
:1010F000A3689B0526D500F0B7F8A06800F086F835
:101100000220FFF725FF124AD2F80838C3F3810303
:10111000022BF9D10F4B22691A600F4B62691A60DA
:101120000E4BA2691A60E379012B0ED1042003B0A3
:10113000BDE83040FFF786BEFFF752FFCEE700F074
:1011400089F8D5E700F09AF8D7E703B030BD00BFC3
:1011500000300240000000200400002008000020B1
:10116000FFF78CBF044B20F4806098420CBF034B08
:10117000034B1868704700BF0010014008000020B2
:1011800004000020094B00F14040B0F5005FD3F8A7
:10119000083806D8064A106813F4E05F18BF40000C
:1011A0007047044A13F4604F1068F7E700300240BC
:1011B0000400002008000020014B1868704700BFA1
:1011C00004000020044B20F4806098420CBF034BC5
:1011D000034B1868704700BF00380040040000202F
:1011E00008000020034AD2F8003C43F48073C2F8A0
:1011F000003C704700300240034AD2F8003C23F420
:101200008073C2F8003C704700300240044AD2F8B4
:10121000003C23F00F031843C2F8000C704700BFD6
:1012200000300240044B054AC3F8082C02F1443256
:10123000C3F8082C704700BF003002403B2A190851
:10124000034AD2F8003C43F48063C2F8003C704784
:1012500000300240034AD2F8003C23F48063C2F815
:10126000003C704700300240034AD2F8003C43F48F
:101270000073C2F8003C704700300240034AD2F8C5
:10128000003C23F40073C2F8003C70470030024079
:10129000034AD2F8003C43F48053C2F8003C704744
:1012A00000300240034AD2F8003C43F40063C2F825
:1012B000003C704700300240044A1368800323F466
:1012C000404380B218431060704700BF0070004078
:1012D00070B54FF0FF0C4CF4E06C1CEA11541DBFCC
:1012E0001CEA135594EA0C0F95EA0C0F00F0DEF897
:1012F0002C4481EA030621EA4C5123EA4C5350EA7C
:10130000013518BF52EA033541F4801143F48013CC
:1013100038D0A0FB02CE4FF00005E1FB02E506F05D
:101320000042E0FB03E54FF00006E1FB03569CF0B2
:10133000000F18BF4EF0010EA4F1FF04B6F5007FB8
:1013400064F5407404D25FEA4E0E6D4146EB06062A
:1013500042EAC62141EA55514FEAC52040EA5E50B3
:101360004FEACE2EB4F1FD0C88BFBCF5E06F1ED85D
:10137000BEF1004F08BF5FEA500E50F1000041EB94
:10138000045170BD06F0004646EA010140EA020041
:1013900081EA0301B4EB5C04C2BFD4EB0C0541EA63
:1013A000045170BD41F480114FF0000E013C00F378
:1013B000AB8014F1360FDEBF002001F0004170BD9C
:1013C000C4F10004203C35DA0C341BDC04F11404B5
:1013D000C4F1200500FA05F320FA04F001FA05F241
:1013E00040EA020001F0004221F0004110EBD3700E
:1013F00021FA04F642EB06015EEA430E08BF20EA3A
:10140000D37070BDC4F10C04C4F1200500FA04F3DC
:1014100020FA05F001FA04F240EA020001F000416E
:1014200010EBD37041F100015EEA430E08BF20EAE1
:10143000D37070BDC4F1200500FA05F24EEA020E29
:1014400020FA04F301FA05F243EA020321FA04F058
:1014500001F0004121FA04F220EA020000EBD3700F
:101460005EEA430E08BF20EAD37070BD94F0000F0F
:101470000FD101F00046400041EB010111F4801F43
:1014800008BF013CF7D041EA060195F0000F18BFF4
:10149000704703F00046520043EB030313F4801F30
:1014A00008BF013DF7D043EA0603704794EA0C0FEA
:1014B0000CEA135518BF95EA0C0F0CD050EA410600
:1014C00018BF52EA4306D1D181EA030101F000417D
:1014D0004FF0000070BD50EA410606BF10461946A5
:1014E00052EA430619D094EA0C0F02D150EA0136B1
:1014F00013D195EA0C0F05D152EA03361CBF1046F2
:1015000019460AD181EA030101F0004141F0FE4190
:1015100041F470014FF0000070BD41F0FE4141F414
:10152000780170BD81F0004102E000BF83F000430C
:1015300030B54FEA41044FEA430594EA050F08BF6E
:1015400090EA020F1FBF54EA000C55EA020C7FEA32
:10155000645C7FEA655C00F0E2804FEA5454D4EBAF
:101560005555B8BF6D420CDD2C4480EA020281EA79
:10157000030382EA000083EA010180EA020281EAB1
:101580000303362D88BF30BD11F0004F4FEA013103
:101590004FF4801C4CEA113102D0404261EB410112
:1015A00013F0004F4FEA03334CEA133302D0524298
:1015B00063EB430394EA050F00F0A780A4F1010454
:1015C000D5F1200E0DDB02FA0EFC22FA05F280188E
:1015D00041F1000103FA0EF2801843FA05F3594174
:1015E0000EE0A5F120050EF1200E012A03FA0EFCF3
:1015F00028BF4CF0020C43FA05F3C01851EBE3711D
:1016000001F0004507D54FF0000EDCF1000C7EEB39
:1016100000006EEB0101B1F5801F1BD3B1F5001F77
:101620000CD349085FEA30004FEA3C0C04F1010496
:101630004FEA445212F5800F80F09A80BCF1004FBF
:1016400008BF5FEA500C50F1000041EB045141EA41
:10165000050130BD5FEA4C0C404141EB0101013C0A
:1016600028BFB1F5801FE9D291F0000F04BF0146F9
:101670000020B1FA81F308BF2033A3F10B03B3F1CB
:1016800020020CDA0C3208DD02F1140CC2F10C025B
:1016900001FA0CF021FA02F10CE002F11402D8BFB9
:1016A000C2F1200C01FA02F120FA0CFCDCBF41EA85
:1016B0000C019040E41AA2BF01EB0451294330BD54
:1016C0006FEA04041F3C1CDA0C340EDC04F1140431
:1016D000C4F1200220FA04F001FA02F340EA030008
:1016E00021FA04F345EA030130BDC4F10C04C4F14E
:1016F000200220FA02F001FA04F340EA030029462E
:1017000030BD21FA04F0294630BD94F0000F83F477
:10171000801306BF81F480110134013D4EE77FEA5A
:10172000645C18BF7FEA655C29D094EA050F08BFA6
:1017300090EA020F05D054EA000C04BF1946104687
:1017400030BD91EA030F1EBF0021002030BD5FEACB
:10175000545C05D14000494128BF41F0004130BDF3
:1017600014F580043CBF01F5801130BD01F0004547
:1017700045F0FE4141F470014FF0000030BD7FEABA
:10178000645C1ABF194610467FEA655C1CBF0B46B5
:10179000024650EA013406BF52EA033591EA030FCC
:1017A00041F4002130BD00BF90F0000F04BF0021C4
:1017B000704730B54FF4806404F132044FF00005F7
:1017C0004FF0000150E700BF90F0000F04BF002170
:1017D000704730B54FF4806404F1320410F00045D6
:1017E00048BF40424FF000013EE700BF42004FEAD1
:1017F000E2014FEA31014FEA02701FBF12F07F434E
:1018000093F07F4F81F06051704732F07F4208BF04
:10181000704793F07F4F04BF41F40021704730B50B
:101820004FF4607401F0004521F000411CE700BF57
:1018300050EA010208BF704730B54FF000050AE0DA
:1018400050EA010208BF704730B511F0004502D5DB
:10185000404261EB41014FF4806404F132045FEADD
:10186000915C3FF4D8AE4FF003025FEADC0C18BF86
:1018700003325FEADC0C18BF033202EBDC02C2F178
:10188000200300FA03FC20FA02F001FA03FE40EA0A
:101890000E0021FA02F11444BDE600BF70B54FF00E
:1018A000FF0C4CF4E06C1CEA11541DBF1CEA1355EC
:1018B00094EA0C0F95EA0C0F00F0DEF82C4481EA54
:1018C000030621EA4C5123EA4C5350EA013518BF74
:1018D00052EA033541F4801143F4801338D0A0FB61
:1018E00002CE4FF00005E1FB02E506F00042E0FB0E
:1018F00003E54FF00006E1FB03569CF0000F18BF14
:101900004EF0010EA4F1FF04B6F5007F64F54074BB
:1019100004D25FEA4E0E6D4146EB060642EAC6214E
:1019200041EA55514FEAC52040EA5E504FEACE2EBB
:10193000B4F1FD0C88BFBCF5E06F1ED8BEF1004FBE
:1019400008BF5FEA500E50F1000041EB045170BD3A
:1019500006F0004646EA010140EA020081EA03017E
:10196000B4EB5C04C2BFD4EB0C0541EA045170BD7A
:1019700041F480114FF0000E013C00F3AB8014F1F4
:10198000360FDEBF002001F0004170BDC4F100043D
:10199000203C35DA0C341BDC04F11404C4F12005BE
:1019A00000FA05F320FA04F001FA05F240EA020019
:1019B00001F0004221F0004110EBD37021FA04F64F
:1019C00042EB06015EEA430E08BF20EAD37070BD09
:1019D000C4F10C04C4F1200500FA04F320FA05F068
:1019E00001FA04F240EA020001F0004110EBD3706A
:1019F00041F100015EEA430E08BF20EAD37070BDDA
:101A0000C4F1200500FA05F24EEA020E20FA04F3B2
:101A100001FA05F243EA020321FA04F001F0004161
:101A200021FA04F220EA020000EBD3705EEA430ED2
:101A300008BF20EAD37070BD94F0000F0FD101F001
:101A40000046400041EB010111F4801F08BF013C3A
:101A5000F7D041EA060195F0000F18BF704703F078
:101A60000046520043EB030313F4801F08BF013DFF
:101A7000F7D043EA0603704794EA0C0F0CEA1355BB
:101A800018BF95EA0C0F0CD050EA410618BF52EA75
:101A90004306D1D181EA030101F000414FF000007B
:101AA00070BD50EA410606BF1046194652EA430689
:101AB00019D094EA0C0F02D150EA013613D195EAFD
:101AC0000C0F05D152EA03361CBF104619460AD145
:101AD00081EA030101F0004141F0FE4141F470014F
:101AE0004FF0000070BD41F0FE4141F4780170BD3F
:101AF00070B54FF0FF0C4CF4E06C1CEA11541DBFA4
:101B00001CEA135594EA0C0F95EA0C0F00F0A7F8A5
:101B1000A4EB050481EA030E52EA03354FEA0131D2
:101B200000F088804FEA03334FF0805545EA1313E5
:101B300043EA12634FEA022245EA111545EA1065AD
:101B40004FEA00260EF000419D4208BF964244F144
:101B5000FD0404F5407402D25B084FEA3202B61A63
:101B600065EB03055B084FEA32024FF480104FF437
:101B7000002CB6EB020E75EB030E22BFB61A7546AB
:101B800040EA0C005B084FEA3202B6EB020E75EB3E
:101B9000030E22BFB61A754640EA5C005B084FEAA6
:101BA0003202B6EB020E75EB030E22BFB61A754673
:101BB00040EA9C005B084FEA3202B6EB020E75EB7E
:101BC000030E22BFB61A754640EADC0055EA060E3F
:101BD00018D04FEA051545EA16754FEA06164FEA82
:101BE000C30343EA52734FEAC2025FEA1C1CC0D12E
:101BF00011F4801F0BD141EA00014FF000004FF0BB
:101C0000004CB6E711F4801F04BF01430020B4F17B
:101C1000FD0C88BFBCF5E06F3FF6AFAEB5EB030C33
:101C200004BFB6EB020C5FEA500C50F1000041EB30
:101C3000045170BD0EF0004E4EEA113114EB5C04FD
:101C4000C2BFD4EB0C0541EA045170BD41F48011D0
:101C50004FF0000E013C90E645EA060E8DE60CEAD8
:101C6000135594EA0C0F08BF95EA0C0F3FF43BAFF5
:101C700094EA0C0F0AD150EA01347FF434AF95EAAC
:101C80000C0F7FF425AF104619462CE795EA0C0F90
:101C900006D152EA03353FF4FDAE1046194622E75D
:101CA00050EA410618BF52EA43067FF4C5AE50EA37
:101CB00041047FF40DAF52EA43057FF4EBAE12E727
:101CC000D0B50C4B002206460F46FFF7E7FD00F0AB
:101CD00015F80446FFF768FD074B0022FFF7DEFD0D
:101CE00002460B4630463946FFF720FC00F006F866
:101CF0002146D0BD0000F03D0000F0414A0011D265
:101D000012F5001211D20DD56FF47873B3EB625255
:101D10000ED44FEAC12343F0004343EA505323FA61
:101D200002F070474FF00000704750EA013002D1D6
:101D30004FF0FF3070474FF00000704730313233C2
:101D400034353637383900000C00500104070001E3
:101D5000020600000004000300BD010580DE8002D1
:101D600000BD01050600600002040001030600003A
:101D70000004000300D8B805006CDC0200D8B805E8
:101D80000C005001020700010506000000050403D5
:101D9000007A030A80DE800200BD01050C006801A4
:101DA0000208000105060000000504030095BA0AB8
:101DB00040A5AE02804A5D051000500104070001F5
:101DC000020600000004000300BD010580DE800261
:101DD00000BD0105080060000204000103060000C8
:101DE0000004000300D8B805006CDC0200D8B80578
:101DF0001000500102070001050600000005040361
:101E0000007A030A80DE800200BD0105100068012F
:101E10000208000105060000000504030095BA0A47
:101E200040A5AE02804A5D0519005001040700017B
:101E3000020600000004000300BD010580DE8002F0
:101E400000BD01051900C0000204000103060000E6
:101E50000004000300D8B805006CDC0200D8B80507
:101E600019005001020700010506000000050403E7
:101E7000007A030A80DE800200BD010519006801B6
:101E80000208000105060000000504030095BA0AD7
:101E900040A5AE02804A5D0508005001040700011C
:101EA000020600000004000300BD010580DE800280
:101EB00000BD0105040060000204000103060000EB
:101EC0000004000300D8B805006CDC0200D8B80597
:101ED0000800500102070001050600000005040388
:101EE000007A030A80DE800200BD01050800680157
:101EF0000208000105060000000504030095BA0A67
:101F000040A5AE02804A5D051000500104070000A4
:101F1000020600000004000300BD010580DE80020F
:101F200000BD010508006000020400000306000077
:101F30000004000300D8B805006CDC0200D8B80526
:101F40001000500102070000050600000005040310
:101F5000007A030A80DE800200BD010510006801DE
:101F60000208000005060000000504030095BA0AF7
:081F700040A5AE02804A5D05A8
:0C1F78000024F4000024F4000024F40015
:0400000508000AA93C
:00000001FF
